{
  "_format": "hh3-artifact-1",
  "contractName": "FluxSwapPair",
  "sourceName": "contracts/FluxSwapPair.sol",
  "abi": [
    {
      "inputs": [],
      "stateMutability": "nonpayable",
      "type": "constructor"
    },
    {
      "inputs": [],
      "name": "ECDSAInvalidSignature",
      "type": "error"
    },
    {
      "inputs": [
        {
          "internalType": "uint256",
          "name": "length",
          "type": "uint256"
        }
      ],
      "name": "ECDSAInvalidSignatureLength",
      "type": "error"
    },
    {
      "inputs": [
        {
          "internalType": "bytes32",
          "name": "s",
          "type": "bytes32"
        }
      ],
      "name": "ECDSAInvalidSignatureS",
      "type": "error"
    },
    {
      "anonymous": false,
      "inputs": [
        {
          "indexed": true,
          "internalType": "address",
          "name": "owner",
          "type": "address"
        },
        {
          "indexed": true,
          "internalType": "address",
          "name": "spender",
          "type": "address"
        },
        {
          "indexed": false,
          "internalType": "uint256",
          "name": "value",
          "type": "uint256"
        }
      ],
      "name": "Approval",
      "type": "event"
    },
    {
      "anonymous": false,
      "inputs": [
        {
          "indexed": true,
          "internalType": "address",
          "name": "sender",
          "type": "address"
        },
        {
          "indexed": false,
          "internalType": "uint256",
          "name": "amount0",
          "type": "uint256"
        },
        {
          "indexed": false,
          "internalType": "uint256",
          "name": "amount1",
          "type": "uint256"
        },
        {
          "indexed": true,
          "internalType": "address",
          "name": "to",
          "type": "address"
        }
      ],
      "name": "Burn",
      "type": "event"
    },
    {
      "anonymous": false,
      "inputs": [
        {
          "indexed": true,
          "internalType": "address",
          "name": "sender",
          "type": "address"
        },
        {
          "indexed": false,
          "internalType": "uint256",
          "name": "amount0",
          "type": "uint256"
        },
        {
          "indexed": false,
          "internalType": "uint256",
          "name": "amount1",
          "type": "uint256"
        }
      ],
      "name": "Mint",
      "type": "event"
    },
    {
      "anonymous": false,
      "inputs": [
        {
          "indexed": true,
          "internalType": "address",
          "name": "treasury",
          "type": "address"
        },
        {
          "indexed": false,
          "internalType": "uint256",
          "name": "amount0",
          "type": "uint256"
        },
        {
          "indexed": false,
          "internalType": "uint256",
          "name": "amount1",
          "type": "uint256"
        }
      ],
      "name": "ProtocolFeePaid",
      "type": "event"
    },
    {
      "anonymous": false,
      "inputs": [
        {
          "indexed": true,
          "internalType": "address",
          "name": "sender",
          "type": "address"
        },
        {
          "indexed": false,
          "internalType": "uint256",
          "name": "amount0In",
          "type": "uint256"
        },
        {
          "indexed": false,
          "internalType": "uint256",
          "name": "amount1In",
          "type": "uint256"
        },
        {
          "indexed": false,
          "internalType": "uint256",
          "name": "amount0Out",
          "type": "uint256"
        },
        {
          "indexed": false,
          "internalType": "uint256",
          "name": "amount1Out",
          "type": "uint256"
        },
        {
          "indexed": true,
          "internalType": "address",
          "name": "to",
          "type": "address"
        }
      ],
      "name": "Swap",
      "type": "event"
    },
    {
      "anonymous": false,
      "inputs": [
        {
          "indexed": false,
          "internalType": "uint112",
          "name": "reserve0",
          "type": "uint112"
        },
        {
          "indexed": false,
          "internalType": "uint112",
          "name": "reserve1",
          "type": "uint112"
        }
      ],
      "name": "Sync",
      "type": "event"
    },
    {
      "anonymous": false,
      "inputs": [
        {
          "indexed": true,
          "internalType": "address",
          "name": "from",
          "type": "address"
        },
        {
          "indexed": true,
          "internalType": "address",
          "name": "to",
          "type": "address"
        },
        {
          "indexed": false,
          "internalType": "uint256",
          "name": "value",
          "type": "uint256"
        }
      ],
      "name": "Transfer",
      "type": "event"
    },
    {
      "inputs": [],
      "name": "DOMAIN_SEPARATOR",
      "outputs": [
        {
          "internalType": "bytes32",
          "name": "",
          "type": "bytes32"
        }
      ],
      "stateMutability": "view",
      "type": "function"
    },
    {
      "inputs": [],
      "name": "MINIMUM_LIQUIDITY",
      "outputs": [
        {
          "internalType": "uint256",
          "name": "",
          "type": "uint256"
        }
      ],
      "stateMutability": "view",
      "type": "function"
    },
    {
      "inputs": [],
      "name": "PERMIT_TYPEHASH",
      "outputs": [
        {
          "internalType": "bytes32",
          "name": "",
          "type": "bytes32"
        }
      ],
      "stateMutability": "view",
      "type": "function"
    },
    {
      "inputs": [
        {
          "internalType": "address",
          "name": "",
          "type": "address"
        },
        {
          "internalType": "address",
          "name": "",
          "type": "address"
        }
      ],
      "name": "allowance",
      "outputs": [
        {
          "internalType": "uint256",
          "name": "",
          "type": "uint256"
        }
      ],
      "stateMutability": "view",
      "type": "function"
    },
    {
      "inputs": [
        {
          "internalType": "address",
          "name": "spender",
          "type": "address"
        },
        {
          "internalType": "uint256",
          "name": "value",
          "type": "uint256"
        }
      ],
      "name": "approve",
      "outputs": [
        {
          "internalType": "bool",
          "name": "success",
          "type": "bool"
        }
      ],
      "stateMutability": "nonpayable",
      "type": "function"
    },
    {
      "inputs": [
        {
          "internalType": "address",
          "name": "",
          "type": "address"
        }
      ],
      "name": "balanceOf",
      "outputs": [
        {
          "internalType": "uint256",
          "name": "",
          "type": "uint256"
        }
      ],
      "stateMutability": "view",
      "type": "function"
    },
    {
      "inputs": [
        {
          "internalType": "address",
          "name": "to",
          "type": "address"
        }
      ],
      "name": "burn",
      "outputs": [
        {
          "internalType": "uint256",
          "name": "amount0",
          "type": "uint256"
        },
        {
          "internalType": "uint256",
          "name": "amount1",
          "type": "uint256"
        }
      ],
      "stateMutability": "nonpayable",
      "type": "function"
    },
    {
      "inputs": [],
      "name": "decimals",
      "outputs": [
        {
          "internalType": "uint8",
          "name": "",
          "type": "uint8"
        }
      ],
      "stateMutability": "view",
      "type": "function"
    },
    {
      "inputs": [],
      "name": "factory",
      "outputs": [
        {
          "internalType": "address",
          "name": "",
          "type": "address"
        }
      ],
      "stateMutability": "view",
      "type": "function"
    },
    {
      "inputs": [],
      "name": "getReserves",
      "outputs": [
        {
          "internalType": "uint112",
          "name": "_reserve0",
          "type": "uint112"
        },
        {
          "internalType": "uint112",
          "name": "_reserve1",
          "type": "uint112"
        },
        {
          "internalType": "uint32",
          "name": "_blockTimestampLast",
          "type": "uint32"
        }
      ],
      "stateMutability": "view",
      "type": "function"
    },
    {
      "inputs": [
        {
          "internalType": "address",
          "name": "_token0",
          "type": "address"
        },
        {
          "internalType": "address",
          "name": "_token1",
          "type": "address"
        }
      ],
      "name": "initialize",
      "outputs": [],
      "stateMutability": "nonpayable",
      "type": "function"
    },
    {
      "inputs": [
        {
          "internalType": "address",
          "name": "to",
          "type": "address"
        }
      ],
      "name": "mint",
      "outputs": [
        {
          "internalType": "uint256",
          "name": "liquidity",
          "type": "uint256"
        }
      ],
      "stateMutability": "nonpayable",
      "type": "function"
    },
    {
      "inputs": [],
      "name": "name",
      "outputs": [
        {
          "internalType": "string",
          "name": "",
          "type": "string"
        }
      ],
      "stateMutability": "view",
      "type": "function"
    },
    {
      "inputs": [
        {
          "internalType": "address",
          "name": "",
          "type": "address"
        }
      ],
      "name": "nonces",
      "outputs": [
        {
          "internalType": "uint256",
          "name": "",
          "type": "uint256"
        }
      ],
      "stateMutability": "view",
      "type": "function"
    },
    {
      "inputs": [
        {
          "internalType": "address",
          "name": "owner",
          "type": "address"
        },
        {
          "internalType": "address",
          "name": "spender",
          "type": "address"
        },
        {
          "internalType": "uint256",
          "name": "value",
          "type": "uint256"
        },
        {
          "internalType": "uint256",
          "name": "deadline",
          "type": "uint256"
        },
        {
          "internalType": "uint8",
          "name": "v",
          "type": "uint8"
        },
        {
          "internalType": "bytes32",
          "name": "r",
          "type": "bytes32"
        },
        {
          "internalType": "bytes32",
          "name": "s",
          "type": "bytes32"
        }
      ],
      "name": "permit",
      "outputs": [],
      "stateMutability": "nonpayable",
      "type": "function"
    },
    {
      "inputs": [],
      "name": "price0CumulativeLast",
      "outputs": [
        {
          "internalType": "uint256",
          "name": "",
          "type": "uint256"
        }
      ],
      "stateMutability": "view",
      "type": "function"
    },
    {
      "inputs": [],
      "name": "price1CumulativeLast",
      "outputs": [
        {
          "internalType": "uint256",
          "name": "",
          "type": "uint256"
        }
      ],
      "stateMutability": "view",
      "type": "function"
    },
    {
      "inputs": [
        {
          "internalType": "address",
          "name": "to",
          "type": "address"
        }
      ],
      "name": "skim",
      "outputs": [],
      "stateMutability": "nonpayable",
      "type": "function"
    },
    {
      "inputs": [
        {
          "internalType": "uint256",
          "name": "amount0Out",
          "type": "uint256"
        },
        {
          "internalType": "uint256",
          "name": "amount1Out",
          "type": "uint256"
        },
        {
          "internalType": "address",
          "name": "to",
          "type": "address"
        },
        {
          "internalType": "bytes",
          "name": "data",
          "type": "bytes"
        }
      ],
      "name": "swap",
      "outputs": [],
      "stateMutability": "nonpayable",
      "type": "function"
    },
    {
      "inputs": [],
      "name": "symbol",
      "outputs": [
        {
          "internalType": "string",
          "name": "",
          "type": "string"
        }
      ],
      "stateMutability": "view",
      "type": "function"
    },
    {
      "inputs": [],
      "name": "sync",
      "outputs": [],
      "stateMutability": "nonpayable",
      "type": "function"
    },
    {
      "inputs": [],
      "name": "token0",
      "outputs": [
        {
          "internalType": "address",
          "name": "",
          "type": "address"
        }
      ],
      "stateMutability": "view",
      "type": "function"
    },
    {
      "inputs": [],
      "name": "token1",
      "outputs": [
        {
          "internalType": "address",
          "name": "",
          "type": "address"
        }
      ],
      "stateMutability": "view",
      "type": "function"
    },
    {
      "inputs": [],
      "name": "totalSupply",
      "outputs": [
        {
          "internalType": "uint256",
          "name": "",
          "type": "uint256"
        }
      ],
      "stateMutability": "view",
      "type": "function"
    },
    {
      "inputs": [
        {
          "internalType": "address",
          "name": "to",
          "type": "address"
        },
        {
          "internalType": "uint256",
          "name": "value",
          "type": "uint256"
        }
      ],
      "name": "transfer",
      "outputs": [
        {
          "internalType": "bool",
          "name": "success",
          "type": "bool"
        }
      ],
      "stateMutability": "nonpayable",
      "type": "function"
    },
    {
      "inputs": [
        {
          "internalType": "address",
          "name": "from",
          "type": "address"
        },
        {
          "internalType": "address",
          "name": "to",
          "type": "address"
        },
        {
          "internalType": "uint256",
          "name": "value",
          "type": "uint256"
        }
      ],
      "name": "transferFrom",
      "outputs": [
        {
          "internalType": "bool",
          "name": "success",
          "type": "bool"
        }
      ],
      "stateMutability": "nonpayable",
      "type": "function"
    }
  ],
  "bytecode": "0x60806040526001600b55348015610014575f5ffd5b50604080518082018252600b81526a0466c757853776170204c560ac1b6020918201528151808301835260018152603160f81b9082015281517f8b73c3c69bb8fe3d512ecc4cf759cc79239f7b179b0ffacaa9a75d522b39400f818301527f4c7c6e49a700530a281d0181aca129aa845e551ffc932b6d6ac2f2158752967b818401527fc89efdaa54c0f20c7adf612882df0950f5a951637e0307cdcb4c672f298b8bc660608201524660808201523060a0808301919091528351808303909101815260c09091019092528151910120600355600580546001600160a01b031916331790556125b4806101065f395ff3fe608060405234801561000f575f5ffd5b5060043610610187575f3560e01c80636a627842116100d9578063ba9a7a5611610093578063d21220a71161006e578063d21220a7146103db578063d505accf146103ee578063dd62ed3e14610401578063fff6cae91461042b575f5ffd5b8063ba9a7a56146103ac578063bc25cf77146103b5578063c45a0155146103c8575f5ffd5b80636a627842146102fa57806370a082311461030d5780637ecebe001461032c57806389afcb441461034b57806395d89b4114610373578063a9059cbb14610399575f5ffd5b806323b872dd116101445780633644e5151161011f5780633644e515146102cc578063485cc955146102d55780635909c0d5146102e85780635a3d5493146102f1575f5ffd5b806323b872dd1461027857806330adf81f1461028b578063313ce567146102b2575f5ffd5b8063022c0d9f1461018b57806306fdde03146101a05780630902f1ac146101e0578063095ea7b3146102145780630dfe16811461023757806318160ddd14610262575b5f5ffd5b61019e61019936600461208f565b610433565b005b6101ca6040518060400160405280600b81526020016a0466c757853776170204c560ac1b81525081565b6040516101d7919061211f565b60405180910390f35b6101e8610aa1565b604080516001600160701b03948516815293909216602084015263ffffffff16908201526060016101d7565b610227610222366004612154565b610acb565b60405190151581526020016101d7565b60065461024a906001600160a01b031681565b6040516001600160a01b0390911681526020016101d7565b61026a5f5481565b6040519081526020016101d7565b61022761028636600461217e565b610ae0565b61026a7f6e71edae12b1b97f4d1f60370fef10105fa2faae0126114a169c64845d6126c981565b6102ba601281565b60405160ff90911681526020016101d7565b61026a60035481565b61019e6102e33660046121bc565b610bb0565b61026a60095481565b61026a600a5481565b61026a6103083660046121f3565b610d62565b61026a61031b3660046121f3565b60016020525f908152604090205481565b61026a61033a3660046121f3565b60046020525f908152604090205481565b61035e6103593660046121f3565b610fea565b604080519283526020830191909152016101d7565b6101ca604051806040016040528060078152602001660464c55582d4c560cc1b81525081565b6102276103a7366004612154565b611308565b61026a6103e881565b61019e6103c33660046121f3565b611314565b60055461024a906001600160a01b031681565b60075461024a906001600160a01b031681565b61019e6103fc36600461220e565b611424565b61026a61040f3660046121bc565b600260209081525f928352604080842090915290825290205481565b61019e6115e5565b600b5460011461045e5760405162461bcd60e51b81526004016104559061227f565b60405180910390fd5b5f600b558415158061046f57505f84115b6104c75760405162461bcd60e51b8152602060048201526024808201527f466c7578537761703a20494e53554646494349454e545f4f55545055545f414d60448201526313d5539560e21b6064820152608401610455565b5f5f6104d1610aa1565b5091509150816001600160701b0316871080156104f65750806001600160701b031686105b6105425760405162461bcd60e51b815260206004820181905260248201527f466c7578537761703a20494e53554646494349454e545f4c49515549444954596044820152606401610455565b6006546007545f9182916001600160a01b0391821691908116908916821480159061057f5750806001600160a01b0316896001600160a01b031614155b6105c25760405162461bcd60e51b8152602060048201526014602482015273466c7578537761703a20494e56414c49445f544f60601b6044820152606401610455565b8a156105d3576105d3828a8d611704565b89156105e4576105e4818a8c611704565b861561064c57604051634eaef00560e11b81526001600160a01b038a1690639d5de00a9061061e9033908f908f908e908e906004016122a9565b5f604051808303815f87803b158015610635575f5ffd5b505af1158015610647573d5f5f3e3d5ffd5b505050505b6040516370a0823160e01b81523060048201526001600160a01b038316906370a0823190602401602060405180830381865afa15801561068e573d5f5f3e3d5ffd5b505050506040513d601f19601f820116820180604052508101906106b291906122f4565b6040516370a0823160e01b81523060048201529094506001600160a01b038216906370a0823190602401602060405180830381865afa1580156106f7573d5f5f3e3d5ffd5b505050506040513d601f19601f8201168201806040525081019061071b91906122f4565b925050505f89856001600160701b0316610735919061231f565b8311610741575f61075e565b6107548a6001600160701b03871661231f565b61075e908461231f565b90505f6107748a6001600160701b03871661231f565b8311610780575f61079d565b6107938a6001600160701b03871661231f565b61079d908461231f565b90505f8211806107ac57505f81115b6108045760405162461bcd60e51b815260206004820152602360248201527f466c7578537761703a20494e53554646494349454e545f494e5055545f414d4f60448201526215539560ea1b6064820152608401610455565b600554604080516361d027b360e01b815290515f926001600160a01b0316916361d027b39160048083019260209291908290030181865afa15801561084b573d5f5f3e3d5ffd5b505050506040513d601f19601f8201168201806040525081019061086f9190612332565b9050601e5f806001600160a01b0384161561096f5761271061089260058861234d565b61089c9190612378565b91506127106108ac60058761234d565b6108b69190612378565b905081156108d5576006546108d5906001600160a01b03168584611704565b80156108f2576007546108f2906001600160a01b03168583611704565b6108fc828961231f565b9750610908818861231f565b96506109166005601e61231f565b92505f82118061092557505f81115b1561096f5760408051838152602081018390526001600160a01b038616917fa8687e68cea77cc7f31d75ba9a0e19dd0533b9161734d20782af20b516b0ffa9910160405180910390a25b5f61097a848861234d565b6109866127108b61234d565b610990919061231f565b90505f61099d858861234d565b6109a96127108b61234d565b6109b3919061231f565b90506109c2600261271061246e565b6109d86001600160701b03808e16908f1661234d565b6109e2919061234d565b6109ec828461234d565b1015610a285760405162461bcd60e51b815260206004820152600b60248201526a466c7578537761703a204b60a81b6044820152606401610455565b505050505050610a3a8484888861184a565b60408051838152602081018390529081018c9052606081018b90526001600160a01b038a169033907fd78ad95fa46c994b6551d0da85fc275fe613ce37657fb8d5e3d130840159d8229060800160405180910390a350506001600b55505050505050505050565b6008546001600160701b0380821692600160701b830490911691600160e01b900463ffffffff1690565b5f610ad7338484611a30565b50600192915050565b6001600160a01b0383165f9081526002602090815260408083203384529091528120545f1914610b9b576001600160a01b0384165f90815260026020908152604080832033845290915281208054849290610b3c90849061231f565b90915550506001600160a01b0384165f81815260026020908152604080832033808552908352928190205490519081529192917f8c5be1e5ebec7d5bd14f71427d1e84f3dd0314c0f7b2291e5b200ac8c7c3b925910160405180910390a35b610ba6848484611b53565b5060019392505050565b6005546001600160a01b03163314610c005760405162461bcd60e51b815260206004820152601360248201527223363abc29bbb0b81d102327a92124a22222a760691b6044820152606401610455565b6006546001600160a01b0316158015610c2257506007546001600160a01b0316155b610c6e5760405162461bcd60e51b815260206004820152601d60248201527f466c7578537761703a20414c52454144595f494e495449414c495a45440000006044820152606401610455565b806001600160a01b0316826001600160a01b031603610ccf5760405162461bcd60e51b815260206004820152601d60248201527f466c7578537761703a204944454e544943414c5f4144445245535345530000006044820152606401610455565b6001600160a01b03821615801590610cef57506001600160a01b03811615155b610d345760405162461bcd60e51b8152602060048201526016602482015275466c7578537761703a205a45524f5f4144445245535360501b6044820152606401610455565b600680546001600160a01b039384166001600160a01b03199182161790915560078054929093169116179055565b5f600b54600114610d855760405162461bcd60e51b81526004016104559061227f565b5f600b81905580610d94610aa1565b506006546040516370a0823160e01b81523060048201529294509092505f916001600160a01b03909116906370a0823190602401602060405180830381865afa158015610de3573d5f5f3e3d5ffd5b505050506040513d601f19601f82011682018060405250810190610e0791906122f4565b6007546040516370a0823160e01b81523060048201529192505f916001600160a01b03909116906370a0823190602401602060405180830381865afa158015610e52573d5f5f3e3d5ffd5b505050506040513d601f19601f82011682018060405250810190610e7691906122f4565b90505f610e8c6001600160701b0386168461231f565b90505f610ea26001600160701b0386168461231f565b5f8054919250819003610ee1576103e8610ec4610ebf848661234d565b611cb5565b610ece919061231f565b9750610edc5f6103e8611d23565b610f28565b610f256001600160701b038816610ef8838661234d565b610f029190612378565b6001600160701b038816610f16848661234d565b610f209190612378565b611da9565b97505b5f8811610f875760405162461bcd60e51b815260206004820152602760248201527f466c7578537761703a20494e53554646494349454e545f4c495155494449545960448201526617d3525395115160ca1b6064820152608401610455565b610f918989611d23565b610f9d8585898961184a565b604080518481526020810184905233917f4c209b5fc8ad50758f13e2e1088ba56a560dff690a1c6fef26394f4c03821c4f910160405180910390a250506001600b55509395945050505050565b5f5f600b5460011461100e5760405162461bcd60e51b81526004016104559061227f565b5f600b8190558061101d610aa1565b506006546007546040516370a0823160e01b81523060048201529395509193506001600160a01b03908116929116905f9083906370a0823190602401602060405180830381865afa158015611074573d5f5f3e3d5ffd5b505050506040513d601f19601f8201168201806040525081019061109891906122f4565b6040516370a0823160e01b81523060048201529091505f906001600160a01b038416906370a0823190602401602060405180830381865afa1580156110df573d5f5f3e3d5ffd5b505050506040513d601f19601f8201168201806040525081019061110391906122f4565b305f9081526001602052604081205490549192509080611123858461234d565b61112d9190612378565b99508061113a848461234d565b6111449190612378565b98505f8a11801561115457505f89115b6111b05760405162461bcd60e51b815260206004820152602760248201527f466c7578537761703a20494e53554646494349454e545f4c495155494449545960448201526617d0955493915160ca1b6064820152608401610455565b6111ba3083611dc0565b6111c5868c8c611704565b6111d0858c8b611704565b6040516370a0823160e01b81523060048201526001600160a01b038716906370a0823190602401602060405180830381865afa158015611212573d5f5f3e3d5ffd5b505050506040513d601f19601f8201168201806040525081019061123691906122f4565b6040516370a0823160e01b81523060048201529094506001600160a01b038616906370a0823190602401602060405180830381865afa15801561127b573d5f5f3e3d5ffd5b505050506040513d601f19601f8201168201806040525081019061129f91906122f4565b92506112ad84848a8a61184a565b604080518b8152602081018b90526001600160a01b038d169133917fdccd412f0b1252819cb1fd330b93224ca42612892bb3f4f789976e6d81936496910160405180910390a350505050505050506001600b81905550915091565b5f610ad7338484611b53565b600b546001146113365760405162461bcd60e51b81526004016104559061227f565b5f600b556006546007546008546040516370a0823160e01b81523060048201526001600160a01b0393841693909216916113d291849186916001600160701b03169083906370a08231906024015b602060405180830381865afa15801561139f573d5f5f3e3d5ffd5b505050506040513d601f19601f820116820180604052508101906113c391906122f4565b6113cd919061231f565b611704565b6008546040516370a0823160e01b815230600482015261141a9183918691600160701b90046001600160701b0316906001600160a01b038416906370a0823190602401611384565b50506001600b5550565b428410156114685760405162461bcd60e51b8152602060048201526011602482015270119b1d5e14ddd85c0e8811561412549151607a1b6044820152606401610455565b6003546001600160a01b0388165f90815260046020526040812080549192917f6e71edae12b1b97f4d1f60370fef10105fa2faae0126114a169c64845d6126c9918b918b918b9190876114ba8361247c565b909155506040805160208101969096526001600160a01b0394851690860152929091166060840152608083015260a082015260c0810187905260e0016040516020818303038152906040528051906020012060405160200161153392919061190160f01b81526002810192909252602282015260420190565b6040516020818303038152906040528051906020012090505f61155882868686611e96565b90506001600160a01b038116158015906115835750886001600160a01b0316816001600160a01b0316145b6115cf5760405162461bcd60e51b815260206004820152601b60248201527f466c7578537761703a20494e56414c49445f5349474e415455524500000000006044820152606401610455565b6115da898989611a30565b505050505050505050565b600b546001146116075760405162461bcd60e51b81526004016104559061227f565b5f600b556006546040516370a0823160e01b81523060048201526116fd916001600160a01b0316906370a0823190602401602060405180830381865afa158015611653573d5f5f3e3d5ffd5b505050506040513d601f19601f8201168201806040525081019061167791906122f4565b6007546040516370a0823160e01b81523060048201526001600160a01b03909116906370a0823190602401602060405180830381865afa1580156116bd573d5f5f3e3d5ffd5b505050506040513d601f19601f820116820180604052508101906116e191906122f4565b6008546001600160701b0380821691600160701b90041661184a565b6001600b55565b604080518082018252601981527f7472616e7366657228616464726573732c75696e74323536290000000000000060209182015281516001600160a01b0385811660248301526044808301869052845180840390910181526064909201845291810180516001600160e01b031663a9059cbb60e01b17905291515f92839287169161178f9190612494565b5f604051808303815f865af19150503d805f81146117c8576040519150601f19603f3d011682016040523d82523d5f602084013e6117cd565b606091505b50915091508180156117f75750805115806117f75750808060200190518101906117f791906124aa565b6118435760405162461bcd60e51b815260206004820152601960248201527f466c7578537761703a205452414e534645525f4641494c4544000000000000006044820152606401610455565b5050505050565b6001600160701b03841180159061186857506001600160701b038311155b6118a95760405162461bcd60e51b8152602060048201526012602482015271466c7578537761703a204f564552464c4f5760701b6044820152606401610455565b5f6118b9640100000000426124c9565b6008549091505f906118d890600160e01b900463ffffffff16836124dc565b90505f8163ffffffff161180156118f757506001600160701b03841615155b801561190b57506001600160701b03831615155b15611998578063ffffffff166119338561192486611ec2565b6001600160e01b031690611ee0565b6001600160e01b0316611946919061234d565b60095f82825461195691906124f8565b909155505063ffffffff811661196f8461192487611ec2565b6001600160e01b0316611982919061234d565b600a5f82825461199291906124f8565b90915550505b6008805463ffffffff8416600160e01b026001600160e01b036001600160701b03898116600160701b9081026001600160e01b03199095168c83161794909417918216831794859055604080519382169282169290921783529290930490911660208201527f1c411e9a96e071241c2f21f7726b17ae89e3cab4c78be50e062b03a9fffbbad1910160405180910390a1505050505050565b6001600160a01b038316611a925760405162461bcd60e51b815260206004820152602360248201527f466c7578537761703a20415050524f56455f46524f4d5f5a45524f5f4144445260448201526245535360e81b6064820152608401610455565b6001600160a01b038216611af25760405162461bcd60e51b815260206004820152602160248201527f466c7578537761703a20415050524f56455f544f5f5a45524f5f4144445245536044820152605360f81b6064820152608401610455565b6001600160a01b038381165f8181526002602090815260408083209487168084529482529182902085905590518481527f8c5be1e5ebec7d5bd14f71427d1e84f3dd0314c0f7b2291e5b200ac8c7c3b92591015b60405180910390a3505050565b6001600160a01b038316611bb55760405162461bcd60e51b8152602060048201526024808201527f466c7578537761703a205452414e534645525f46524f4d5f5a45524f5f4144446044820152635245535360e01b6064820152608401610455565b6001600160a01b038216611c165760405162461bcd60e51b815260206004820152602260248201527f466c7578537761703a205452414e534645525f544f5f5a45524f5f4144445245604482015261535360f01b6064820152608401610455565b6001600160a01b0383165f9081526001602052604081208054839290611c3d90849061231f565b90915550506001600160a01b0382165f9081526001602052604081208054839290611c699084906124f8565b92505081905550816001600160a01b0316836001600160a01b03167fddf252ad1be2c89b69c2b068fc378daa952ba7f163c4a11628f55a4df523b3ef83604051611b4691815260200190565b5f6003821115611d145750805f611ccd600283612378565b611cd89060016124f8565b90505b81811015611d0e57905080600281611cf38186612378565b611cfd91906124f8565b611d079190612378565b9050611cdb565b50919050565b8115611d1e575060015b919050565b805f5f828254611d3391906124f8565b90915550506001600160a01b0382165f9081526001602052604081208054839290611d5f9084906124f8565b90915550506040518181526001600160a01b038316905f907fddf252ad1be2c89b69c2b068fc378daa952ba7f163c4a11628f55a4df523b3ef906020015b60405180910390a35050565b5f818310611db75781611db9565b825b9392505050565b6001600160a01b038216611e165760405162461bcd60e51b815260206004820181905260248201527f466c7578537761703a204255524e5f46524f4d5f5a45524f5f414444524553536044820152606401610455565b6001600160a01b0382165f9081526001602052604081208054839290611e3d90849061231f565b92505081905550805f5f828254611e54919061231f565b90915550506040518181525f906001600160a01b038416907fddf252ad1be2c89b69c2b068fc378daa952ba7f163c4a11628f55a4df523b3ef90602001611d9d565b5f5f5f5f611ea688888888611ef4565b925092509250611eb68282611fbc565b50909695505050505050565b5f611eda600160701b6001600160701b03841661250b565b92915050565b5f611db96001600160701b0383168461253c565b5f80807f7fffffffffffffffffffffffffffffff5d576e7357a4501ddfe92f46681b20a0841115611f2d57505f91506003905082611fb2565b604080515f808252602082018084528a905260ff891692820192909252606081018790526080810186905260019060a0016020604051602081039080840390855afa158015611f7e573d5f5f3e3d5ffd5b5050604051601f1901519150506001600160a01b038116611fa957505f925060019150829050611fb2565b92505f91508190505b9450945094915050565b5f826003811115611fcf57611fcf61256a565b03611fd8575050565b6001826003811115611fec57611fec61256a565b0361200a5760405163f645eedf60e01b815260040160405180910390fd5b600282600381111561201e5761201e61256a565b0361203f5760405163fce698f760e01b815260048101829052602401610455565b60038260038111156120535761205361256a565b03612074576040516335e2f38360e21b815260048101829052602401610455565b5050565b6001600160a01b038116811461208c575f5ffd5b50565b5f5f5f5f5f608086880312156120a3575f5ffd5b853594506020860135935060408601356120bc81612078565b9250606086013567ffffffffffffffff8111156120d7575f5ffd5b8601601f810188136120e7575f5ffd5b803567ffffffffffffffff8111156120fd575f5ffd5b88602082840101111561210e575f5ffd5b959894975092955050506020019190565b602081525f82518060208401528060208501604085015e5f604082850101526040601f19601f83011684010191505092915050565b5f5f60408385031215612165575f5ffd5b823561217081612078565b946020939093013593505050565b5f5f5f60608486031215612190575f5ffd5b833561219b81612078565b925060208401356121ab81612078565b929592945050506040919091013590565b5f5f604083850312156121cd575f5ffd5b82356121d881612078565b915060208301356121e881612078565b809150509250929050565b5f60208284031215612203575f5ffd5b8135611db981612078565b5f5f5f5f5f5f5f60e0888a031215612224575f5ffd5b873561222f81612078565b9650602088013561223f81612078565b95506040880135945060608801359350608088013560ff81168114612262575f5ffd5b9699959850939692959460a0840135945060c09093013592915050565b60208082526010908201526f119b1d5e14ddd85c0e881313d0d2d15160821b604082015260600190565b60018060a01b038616815284602082015283604082015260806060820152816080820152818360a08301375f81830160a090810191909152601f909201601f19160101949350505050565b5f60208284031215612304575f5ffd5b5051919050565b634e487b7160e01b5f52601160045260245ffd5b81810381811115611eda57611eda61230b565b5f60208284031215612342575f5ffd5b8151611db981612078565b8082028115828204841417611eda57611eda61230b565b634e487b7160e01b5f52601260045260245ffd5b5f8261238657612386612364565b500490565b6001815b60018411156123c6578085048111156123aa576123aa61230b565b60018416156123b857908102905b60019390931c92800261238f565b935093915050565b5f826123dc57506001611eda565b816123e857505f611eda565b81600181146123fe576002811461240857612424565b6001915050611eda565b60ff8411156124195761241961230b565b50506001821b611eda565b5060208310610133831016604e8410600b8410161715612447575081810a611eda565b6124535f19848461238b565b805f19048211156124665761246661230b565b029392505050565b5f611db960ff8416836123ce565b5f6001820161248d5761248d61230b565b5060010190565b5f82518060208501845e5f920191825250919050565b5f602082840312156124ba575f5ffd5b81518015158114611db9575f5ffd5b5f826124d7576124d7612364565b500690565b63ffffffff8281168282160390811115611eda57611eda61230b565b80820180821115611eda57611eda61230b565b6001600160e01b038181168382168181029092169181830481148215176125345761253461230b565b505092915050565b5f6001600160e01b0383168061255457612554612364565b6001600160e01b03929092169190910492915050565b634e487b7160e01b5f52602160045260245ffdfea26469706673582212200a25313c1ebcd1642c9e2079a6ddefe695694c1f3712f3fe445e4847bb8a659864736f6c634300081c0033",
  "linkReferences": {},
  "deployedLinkReferences": {},
  "immutableReferences": {},
  "inputSourceName": "project/contracts/FluxSwapPair.sol",
  "buildInfoId": "solc-0_8_28-8a156c66979e59c673471cc0011fa586be7b9f9b"
}